:1000000010C017C016C015C014C013C012C011C054
:1000100010C00FC00EC00DC00CC00BC00AC009C07C
:1000200008C011241FBECFE5D2E0DEBFCDBF0FD088
:10003000DDC0E6CF8BB3817E8BBB8AB38E618ABB7A
:1000400088B3887F88BB87B3876087BB0895F2DF5A
:100050004EE091E074E033E05AE167E0FCE086E0D6
:10006000E5E022E01CE1B4E1A8E14BBB98BBC7E8A6
:10007000D3E12197F1F700C000007BBB38BBC7E894
:10008000D3E12197F1F700C000005BBB68BBC7E874
:10009000D3E12197F1F700C00000FBBB68BBC7E8C4
:1000A000D3E12197F1F700C00000FBBB38BBC7E8E4
:1000B000D3E12197F1F700C000004BBB88BBC7E834
:1000C000D3E12197F1F700C000008BBBE8BBC7E884
:1000D000D3E12197F1F700C000007BBB98BBC7E8D4
:1000E000D3E12197F1F700C000004BBB98BBC7E8F4
:1000F000D3E12197F1F700C000008BBB38BBC7E804
:10010000D3E12197F1F700C000001BBA28BBC7E874
:10011000D3E12197F1F700C000007BBB98BBC7E893
:10012000D3E12197F1F700C000002BBBE8BBC7E883
:10013000D3E12197F1F700C000008BBB38BBC7E8C3
:10014000D3E12197F1F700C000001BBB68BBC7E8F3
:10015000D3E12197F1F700C000001BBA28BBC7E824
:10016000D3E12197F1F700C000002BBB98BBC7E893
:10017000D3E12197F1F700C000005BBB88BBC7E863
:10018000D3E12197F1F700C00000BBBB28BBC7E853
:10019000D3E12197F1F700C000005BBB88BBC7E843
:1001A000D3E12197F1F700C000002BBB98BBC7E853
:1001B000D3E12197F1F700C000004BBB88BBC7E833
:1001C000D3E12197F1F700C000004BBB38BBC7E873
:1001D000D3E12197F1F700C00000ABBB88BBC7E8B3
:1001E000D3E12197F1F700C000003FCFF894FFCF93
:00000001FF
