:020000040000FA
:100000000C9462000C947F000C947F000C947F0091
:100010000C947F000C947F000C947F000C94480398
:100020000C947F000C947F000C947F000C947F0054
:100030000C947F000C947F000C947F000C947F0044
:100040000C94A4030C947F000C947F000C947F000C
:100050000C947F000C947F000C947F000C947F0024
:100060000C947F000C947F00000000002400270007
:100070002A000000000023002600290000000008DC
:10008000000201000003040700000000000000005F
:10009000010204081020408001020408102001021F
:1000A0000408102000000000250028002B00040494
:1000B0000404040404040202020202020303030310
:1000C0000303020011241FBECFEFD4E0DEBFCDBF7B
:1000D00011E0A0E0B1E0E0E7FBE002C005900D9286
:1000E000A230B107D9F721E0A2E0B1E001C01D9232
:1000F000AC32B207E1F70E94EE030C94B6050C9403
:100100000000833081F028F4813099F08230A9F02A
:1001100008958730A9F08830C9F08430B1F4809117
:1001200080008F7D03C0809180008F778093800056
:10013000089584B58F7784BD089584B58F7DFBCFF6
:100140008091B0008F778093B00008958091B000C7
:100150008F7DF9CFCF93DF93282F30E0F901E4585A
:10016000FF4F8491F901E057FF4FD491F901E25517
:10017000FF4FC491CC23A1F081110E948100EC2F8C
:10018000F0E0EE0FFF1FEE58FF4FA591B491EC91F8
:10019000ED2381E090E009F480E0DF91CF910895B4
:1001A00080E090E0FACF1F93CF93DF93282F30E0C9
:1001B000F901E458FF4F8491F901E057FF4FD491C2
:1001C000F901E255FF4FC491CC23A9F0162F8111FC
:1001D0000E948100EC2FF0E0EE0FFF1FEC55FF4F67
:1001E000A591B4918FB7F894EC91111108C0D095F6
:1001F000DE23DC938FBFDF91CF911F910895DE2B1B
:10020000F8CF9091000189130BC0E2ECF0E0E4918B
:100210009FEF90930001E13049F028F0E23061F067
:1002200060E00C94D30010926E00FACF90916F00B2
:100230009D7F90936F00F4CF909170009D7F90937D
:10024000700091E09093B0009091B100987F94601D
:100250009093B1001092B300E3CFCF93DF9390E07F
:10026000FC01E057FF4F249182559F4FFC01849180
:100270008823D1F090E0880F991FFC01E859FF4FC7
:10028000A591B491FC01EC55FF4FC591D49161113A
:100290000EC09FB7F8948C91E22FE0958E238C933B
:1002A0002881E223E8839FBFDF91CF9108958FB724
:1002B000F894EC91E22BEC938FBFF6CF8F929F9244
:1002C000AF92BF92CF92DF92EF92FF920F931F9364
:1002D000CF938B0169017A0190910001891771F028
:1002E0009F3F99F1CF911F910F91FF90EF90DF9079
:1002F000CF90BF90AF909F908F900895E2ECF0E088
:10030000C491C7FDEFCF61E00E942D01CC2319F00D
:10031000C23009F093C0980150E040E068E478EE04
:1003200081E090E00E94690549015A0181E0881A44
:100330009108A108B108CC2309F4DCC08091B10078
:10034000887F84608093B10091C080930001E2ECCB
:10035000F0E0C491CF3F09F4C5CFC13039F148F086
:10036000C23009F445C0C7FDBDCF61E00E942D0138
:10037000CFCF14BC15BC94B5926094BD95B5916077
:1003800095BD282F30E0F901E255FF4FE491F0E0F0
:10039000EE0FFF1FEC55FF4F45915491F901E057C7
:1003A000FF4FE491E0930C01C0E0ADCF10928000CC
:1003B00010928100909181009860909381009091BB
:1003C0008100916090938100282F30E0F901E2557F
:1003D000FF4FE491F0E0EE0FFF1FEC55FF4F45910A
:1003E0005491F901E057FF4FE491E0930B018BCF5B
:1003F0001092B0001092B1009091B0009260909372
:10040000B0009091B10091609093B100282F30E03E
:10041000F901E255FF4FE491F0E0EE0FFF1FEC55BC
:10042000FF4F459154915093160140931501F901E6
:10043000E057FF4FE491E093170165CF980150E03A
:1004400040E060E072E18AE790E00E9469054901BE
:100450005A0181E0881A9108A108B108C13031F42D
:1004600080918100887F816080938100D801AA0FEC
:10047000BB1FA70196010E94880528EE33E040E0EB
:1004800050E00E944705C13099F0C23019F1C11106
:1004900029CF87BC2093110130931201409313019F
:1004A0005093140180916E00826080936E001ACF89
:1004B000909289008092880020930D0130930E0164
:1004C00040930F015093100180916F0082608093E0
:1004D0006F0008CF8092B300209318013093190168
:1004E00040931A0150931B018091700082608093A9
:1004F0007000F8CE85B5887F836085BDB7CF1F9328
:10050000CF93DF93182FEB0161E00E942D0120971C
:1005100039F460E0812FDF91CF911F910C94D300CB
:10052000CF3FD10511F461E0F5CFE12FF0E0E458C1
:10053000FF4FE491E33031F140F4E130B1F0E230CB
:10054000E1F0C038D1057CF7E4CFE73029F1E8309D
:1005500059F1E430B1F7809180008062809380008F
:10056000D0938B00C0938A0004C084B5806884BD9A
:10057000C7BDDF91CF911F91089584B5806284BD7E
:10058000C8BDF7CF80918000806880938000D093B1
:100590008900C0938800EDCF8091B000806880937F
:1005A000B000C093B300E5CF8091B000806280932B
:1005B000B000C093B400DDCF8E3008F08E5087704D
:1005C000806480937C0080917A00806480937A00BC
:1005D00080917A0086FDFCCF80917800909179001F
:1005E00008953FB7F8948091070190910801A09178
:1005F0000901B0910A0126B5A89B05C02F3F19F04B
:100600000196A11DB11D3FBFBA2FA92F982F882792
:10061000BC01CD01620F711D811D911D42E0660F6D
:10062000771F881F991F4A95D1F708958F929F923F
:10063000AF92BF92CF92DF92EF92FF924B015C019B
:100640000E94F1026B017C010E94F1026C197D098C
:100650008E099F09683E734081059105A8F321E04A
:10066000821A9108A108B10888EEC80E83E0D81E4E
:10067000E11CF11C81149104A104B10429F7FF903D
:10068000EF90DF90CF90BF90AF909F908F900895A4
:100690001F920F920FB60F9211242F933F934F93F7
:1006A0005F936F937F938F939F93AF93BF93EF93DA
:1006B000FF938091180190911901A0911A01B091B6
:1006C0001B01892B8A2B8B2BD1F190911701E09183
:1006D0001501F0911601808189278083809118018E
:1006E00090911901A0911A01B0911B0118161906D9
:1006F0001A061B069CF48091180190911901A09193
:100700001A01B0911B010197A109B1098093180149
:1007100090931901A0931A01B0931B01FF91EF91DF
:10072000BF91AF919F918F917F916F915F914F9109
:100730003F912F910F900FBE0F901F9018958091B1
:1007400000010E940101EACF1F920F920FB60F9293
:1007500011242F933F938F939F93AF93BF938091D7
:10076000030190910401A0910501B091060130911F
:10077000020123E0230F2D3758F50196A11DB11D6D
:10078000209302018093030190930401A09305013B
:10079000B09306018091070190910801A091090191
:1007A000B0910A010196A11DB11D8093070190939C
:1007B0000801A0930901B0930A01BF91AF919F91E5
:1007C0008F913F912F910F900FBE0F901F90189512
:1007D00026E8230F0296A11DB11DD2CF789484B5CF
:1007E000826084BD84B5816084BD85B5826085BD2D
:1007F00085B5816085BD80916E00816080936E00BB
:1008000010928100809181008260809381008091AC
:10081000810081608093810080918000816080935D
:1008200080008091B10084608093B1008091B0001D
:1008300081608093B00080917A00846080937A0018
:1008400080917A00826080937A0080917A00816042
:1008500080937A0080917A00806880937A00109269
:10086000C10060E082E00E942D0160E084E00E940F
:100870002D0160E08CE00E942D0161E08DE00E947E
:100880002D01CFEFD0E082E00E94AA001C019093DE
:100890002B0180932A0184E00E94AA002C019093EE
:1008A0002901809328018CE00E94AA003C019093CA
:1008B0002701809326018EE00E94DC028C01909338
:1008C0002501809324018EE00E94DC027C0190933C
:1008D0002301809322018EE00E94DC026C01909340
:1008E0002101809320018EE00E94DC025C01909344
:1008F0001F0180931E018EE00E94DC024C01909348
:100900001D0180931C018EE00E94DC02BE010E944A
:100910003305BC018BE00E947F02C401BE010E942E
:100920003305BC018AE00E947F02C501BE010E941E
:100930003305BC0189E00E947F02C601BE010E940E
:100940003305869DB001879D700D969D700D112415
:1009500086E00E947F02C701BE010E943305849D8C
:10096000B001859D700D949D700D112485E00E944D
:100970007F02C801BE010E943305829DB001839DA4
:10098000700D929D700D112483E00E947F0224EF70
:1009900031E040E050E06EEE71E087E00E945E01E1
:1009A00064EF71E080E090E00E94160387E00E940F
:1009B00001012CE231E040E050E06BE072E088E0C1
:1009C0000E945E016CE271E080E090E00E941603FC
:1009D00088E00E94010110E000E0C801855B9F4FA4
:1009E000BE010E943305BC018BE00E947F02C8015A
:1009F000CC96BE010E943305BC018AE00E947F02B2
:100A0000C8018D96BE010E943305BC0189E00E9499
:100A10007F02C8014E96BE010E943305BC0186E0EC
:100A20000E947F02C8010F96BE010E943305BC01DF
:100A300085E00E947F02B80183E00E947F026EE1A0
:100A400070E080E090E00E9416030B5F1F4F0430BF
:100A500081E0180711F680E090E0892B09F413CFAC
:100A60000E94000010CF97FB072E16F4009407D0C9
:100A700077FD09D00E94930507FC05D03EF49095C0
:100A800081959F4F0895709561957F4F0895A1E2DC
:100A90001A2EAA1BBB1BFD010DC0AA1FBB1FEE1FF8
:100AA000FF1FA217B307E407F50720F0A21BB30B43
:100AB000E40BF50B661F771F881F991F1A9469F7BF
:100AC00060957095809590959B01AC01BD01CF011B
:100AD0000895052E97FB1EF400940E94800557FD93
:100AE00007D00E94470507FC03D04EF40C94800504
:100AF00050954095309521953F4F4F4F5F4F08954A
:100B000090958095709561957F4F8F4F9F4F089579
:100B10000E94A705A59F900DB49F900DA49F800DE6
:100B2000911D11240895AA1BBB1B51E107C0AA1FE8
:100B3000BB1FA617B70710F0A61BB70B881F991F7E
:100B40005A95A9F780959095BC01CD010895A29F73
:100B5000B001B39FC001A39F700D811D1124911D91
:100B6000B29F700D811D1124911D0895F894FFCF3F
:020B7000FF0084
:103800000C94341C0C94511C0C94511C0C94511CA1
:103810000C94511C0C94511C0C94511C0C94511C74
:103820000C94511C0C94511C0C94511C0C94511C64
:103830000C94511C0C94511C0C94511C0C94511C54
:103840000C94511C0C94511C0C94511C0C94511C44
:103850000C94511C0C94511C0C94511C0C94511C34
:103860000C94511C0C94511C11241FBECFEFD4E0BA
:10387000DEBFCDBF11E0A0E0B1E0E4EAFFE302C0AB
:1038800005900D92A230B107D9F712E0A2E0B1E0A5
:1038900001C01D92AD30B107E1F70E94361D0C94B6
:1038A000D01F0C94001C982F9595959595959595FE
:1038B000905D8F708A307CF0282F295A8091C0004B
:1038C00085FFFCCF9093C6008091C00085FFFCCFA0
:1038D0002093C6000895282F205DF0CF982F809167
:1038E000C00085FFFCCF9093C6000895EF92FF9231
:1038F0000F931F93EE24FF2487018091C00087FD62
:1039000017C00894E11CF11C011D111D81E4E8168B
:1039100082E4F8068FE0080780E0180770F3E09172
:103920000401F091050109958091C00087FFE9CF5E
:103930008091C6001F910F91FF90EF9008950E9413
:10394000761C982F8091C00085FFFCCF9093C60015
:1039500091362CF490330CF09053892F089597559D
:10396000892F08951F930E949F1C182F0E949F1C4F
:103970001295107F810F1F910895882351F0982F81
:1039800091508091C00087FFFCCF8091C6009923A1
:10399000B9F708951F93182F0E94761C803249F0C2
:1039A000809103018F5F809303018530C1F01F91E7
:1039B00008958091C00085FFFCCF84E18093C6000C
:1039C0008091C00085FFFCCF1093C6008091C0009D
:1039D00085FFFCCF80E18093C6001F910895E091A0
:1039E0000401F091050109951F9108950E94761C2C
:1039F000803241F0809103018F5F80930301853015
:103A000081F008958091C00085FFFCCF84E1809310
:103A1000C6008091C00085FFFCCF80E18093C60086
:103A20000895E0910401F09105010995089510921F
:103A30000A028823D1F090E040E951E02D9A28EE67
:103A400033E0FA013197F1F721503040D1F72D984A
:103A500028EE33E0FA013197F1F721503040D1F7E9
:103A60009F5F981758F380930A0208953F924F92F0
:103A70005F926F927F928F929F92AF92BF92CF92FE
:103A8000DF92EF92FF920F931F93CF93DF9300008B
:103A900083E38093C4001092C50088E18093C10045
:103AA00086E08093C2005098589A259A81E00E943F
:103AB000171D44E1F42E3EE1E32E24E9D22E96E0D8
:103AC000C92E80E1B82EAA24A39401E4902E16E515
:103AD000812EB2E57B2EA0E26A2EF9E45F2EE3E5AB
:103AE0004E2E70E5372E0E94761C8033B1F1813363
:103AF00009F441C0803409F479C0813409F48CC0E0
:103B0000823471F1853409F47BC0803531F182351E
:103B100021F1813511F1853509F48DC0863509F41F
:103B20009DC0843609F4AEC0843709F41BC18537C3
:103B300009F485C1863709F47AC0809103018F5F4B
:103B400080930301853079F6E0910401F09105013D
:103B500009950E94761C803351F60E94F61CC3CF53
:103B600093E18091C00087FFFCCF8091C60099232C
:103B7000A1F39150F6CF0E94761C8032F1F680912D
:103B8000C00085FFFCCFF092C6008091C00085FF89
:103B9000FCCF9092C6008091C00085FFFCCF809240
:103BA000C6008091C00085FFFCCF7092C600809156
:103BB000C00085FFFCCF6092C6008091C00085FFE9
:103BC000FCCF5092C6008091C00085FFFCCF409290
:103BD000C6008091C00085FFFCCF3092C600809166
:103BE000C00085FFFCCFB092C6007DCF0E94761C3E
:103BF000863808F4B2CF0E94761C0E94F61C73CF60
:103C000094E08091C00087FFFCCF8091C60099238B
:103C100009F4A3CF9150F5CF0E94761C8038D1F0E3
:103C2000813861F1823809F499C0883979F080E0EF
:103C30000E94CA1C58CF0E94761C809306010E94E5
:103C4000761C809307010E94F61C4DCF83E00E94F2
:103C5000CA1C49CF82E00E94CA1C45CF0E94761C34
:103C6000803309F486C192E08091C00087FFFCCFC9
:103C70008091C6009923D9F29150F6CF81E00E943D
:103C8000CA1C31CF0E94761C809309020E94761CC8
:103C90008093080280910C028E7F80930C020E9418
:103CA000761C853429F480910C02816080930C028B
:103CB0008091080290910902892B89F000E010E0C0
:103CC0000E94761CF801E85FFE4F80830F5F1F4F54
:103CD00080910802909109020817190788F30E9441
:103CE000761C803209F029CF80910C0280FFD1C070
:103CF0004091060150910701440F551F5093070151
:103D000040930601A0910802B09109021097C9F0F2
:103D1000E8E0F1E09A01BD016E0F7F1FF999FECF37
:103D200032BD21BD819180BDFA9AF99A2F5F3F4F34
:103D3000E617F70799F74A0F5B1F50930701409367
:103D400006018091C00085FFFCCFF092C6008091F3
:103D5000C00085FFFCCFB092C600C5CE80E10E94B6
:103D6000CA1CC1CE0E94761C809309020E94761C58
:103D7000809308028091060190910701880F991F96
:103D800090930701809306010E94761C853409F404
:103D90007AC080910C028E7F80930C020E94761C68
:103DA000803209F0A0CE8091C00085FFFCCFF09258
:103DB000C600A0910802B09109021097B9F1809154
:103DC0000C02182F1170082F0270E0910601F0917B
:103DD00007019F012F5F3F4FB90140E050E01123E1
:103DE000B1F4002339F494918091C00085FFFCCF99
:103DF0009093C6004F5F5F4FCB010196F9014A17C0
:103E00005B0780F4BC012F5F3F4F112351F3F999F9
:103E1000FECFF2BDE1BDF89A90B58091C00085FF5C
:103E2000FCCFE6CF70930701609306018091C0003C
:103E300085FDD9CE8091C00085FFF8CFD4CE0E94F9
:103E4000761C803209F079CE8091C00085FFFCCFCE
:103E5000F092C6008091C00085FFFCCFE092C600C2
:103E60008091C00085FFFCCFD092C6008091C00039
:103E700085FFFCCFC092C6008091C00085FFFCCFBB
:103E8000B092C60030CE80910C02816080930C020B
:103E900085CF809107018823880F880B8A21809322
:103EA0000B028091060190910701880F991F909352
:103EB0000701809306018091080280FF09C080916C
:103EC00008029091090201969093090280930802DA
:103ED000F894F999FECF1127E0910601F0910701BE
:103EE000C8E0D1E08091080290910902103091F46D
:103EF0000091570001700130D9F303E0009357009F
:103F0000E8950091570001700130D9F301E1009369
:103F10005700E89509901990009157000170013001
:103F2000D9F301E000935700E8951395103498F009
:103F300011270091570001700130D9F305E000937B
:103F40005700E8950091570001700130D9F301E165
:103F500000935700E8953296029709F0C7CF1030CA
:103F600011F00296E5CF11248091C00085FFE9CEC3
:103F7000ECCE0E94761C0E94761C182F0E94761CA4
:103F8000112351F0113021F086E00E94CA1CABCD04
:103F900084E90E94CA1CA7CD8EE10E94CA1CA3CD51
:063FA000F894FFCF800041
:00000001FF
